{
  "_format": "hh-sol-artifact-1",
  "contractName": "MintAdNFT",
  "sourceName": "contracts/MintAdNFT.sol",
  "abi": [
    {
      "inputs": [],
      "stateMutability": "nonpayable",
      "type": "constructor"
    },
    {
      "anonymous": false,
      "inputs": [
        {
          "indexed": true,
          "internalType": "address",
          "name": "owner",
          "type": "address"
        },
        {
          "indexed": true,
          "internalType": "address",
          "name": "approved",
          "type": "address"
        },
        {
          "indexed": true,
          "internalType": "uint256",
          "name": "tokenId",
          "type": "uint256"
        }
      ],
      "name": "Approval",
      "type": "event"
    },
    {
      "anonymous": false,
      "inputs": [
        {
          "indexed": true,
          "internalType": "address",
          "name": "owner",
          "type": "address"
        },
        {
          "indexed": true,
          "internalType": "address",
          "name": "operator",
          "type": "address"
        },
        {
          "indexed": false,
          "internalType": "bool",
          "name": "approved",
          "type": "bool"
        }
      ],
      "name": "ApprovalForAll",
      "type": "event"
    },
    {
      "anonymous": false,
      "inputs": [
        {
          "indexed": true,
          "internalType": "address",
          "name": "previousOwner",
          "type": "address"
        },
        {
          "indexed": true,
          "internalType": "address",
          "name": "newOwner",
          "type": "address"
        }
      ],
      "name": "OwnershipTransferred",
      "type": "event"
    },
    {
      "anonymous": false,
      "inputs": [
        {
          "indexed": true,
          "internalType": "address",
          "name": "from",
          "type": "address"
        },
        {
          "indexed": true,
          "internalType": "address",
          "name": "to",
          "type": "address"
        },
        {
          "indexed": true,
          "internalType": "uint256",
          "name": "tokenId",
          "type": "uint256"
        }
      ],
      "name": "Transfer",
      "type": "event"
    },
    {
      "inputs": [
        {
          "internalType": "address",
          "name": "to",
          "type": "address"
        },
        {
          "internalType": "uint256",
          "name": "tokenId",
          "type": "uint256"
        }
      ],
      "name": "approve",
      "outputs": [],
      "stateMutability": "nonpayable",
      "type": "function"
    },
    {
      "inputs": [
        {
          "internalType": "address",
          "name": "owner",
          "type": "address"
        }
      ],
      "name": "balanceOf",
      "outputs": [
        {
          "internalType": "uint256",
          "name": "",
          "type": "uint256"
        }
      ],
      "stateMutability": "view",
      "type": "function"
    },
    {
      "inputs": [],
      "name": "count",
      "outputs": [
        {
          "internalType": "uint256",
          "name": "",
          "type": "uint256"
        }
      ],
      "stateMutability": "view",
      "type": "function"
    },
    {
      "inputs": [
        {
          "internalType": "uint256",
          "name": "tokenId",
          "type": "uint256"
        }
      ],
      "name": "getApproved",
      "outputs": [
        {
          "internalType": "address",
          "name": "",
          "type": "address"
        }
      ],
      "stateMutability": "view",
      "type": "function"
    },
    {
      "inputs": [
        {
          "internalType": "address",
          "name": "owner",
          "type": "address"
        },
        {
          "internalType": "address",
          "name": "operator",
          "type": "address"
        }
      ],
      "name": "isApprovedForAll",
      "outputs": [
        {
          "internalType": "bool",
          "name": "",
          "type": "bool"
        }
      ],
      "stateMutability": "view",
      "type": "function"
    },
    {
      "inputs": [
        {
          "internalType": "string",
          "name": "uri",
          "type": "string"
        }
      ],
      "name": "isContentOwned",
      "outputs": [
        {
          "internalType": "bool",
          "name": "",
          "type": "bool"
        }
      ],
      "stateMutability": "view",
      "type": "function"
    },
    {
      "inputs": [],
      "name": "name",
      "outputs": [
        {
          "internalType": "string",
          "name": "",
          "type": "string"
        }
      ],
      "stateMutability": "view",
      "type": "function"
    },
    {
      "inputs": [],
      "name": "owner",
      "outputs": [
        {
          "internalType": "address",
          "name": "",
          "type": "address"
        }
      ],
      "stateMutability": "view",
      "type": "function"
    },
    {
      "inputs": [
        {
          "internalType": "uint256",
          "name": "tokenId",
          "type": "uint256"
        }
      ],
      "name": "ownerOf",
      "outputs": [
        {
          "internalType": "address",
          "name": "",
          "type": "address"
        }
      ],
      "stateMutability": "view",
      "type": "function"
    },
    {
      "inputs": [
        {
          "internalType": "address",
          "name": "recipient",
          "type": "address"
        },
        {
          "internalType": "address",
          "name": "referrer",
          "type": "address"
        },
        {
          "internalType": "string",
          "name": "metadataURI",
          "type": "string"
        }
      ],
      "name": "payToMint",
      "outputs": [
        {
          "internalType": "uint256",
          "name": "",
          "type": "uint256"
        }
      ],
      "stateMutability": "payable",
      "type": "function"
    },
    {
      "inputs": [],
      "name": "renounceOwnership",
      "outputs": [],
      "stateMutability": "nonpayable",
      "type": "function"
    },
    {
      "inputs": [
        {
          "internalType": "address",
          "name": "to",
          "type": "address"
        },
        {
          "internalType": "string",
          "name": "uri",
          "type": "string"
        }
      ],
      "name": "safeMint",
      "outputs": [],
      "stateMutability": "nonpayable",
      "type": "function"
    },
    {
      "inputs": [
        {
          "internalType": "address",
          "name": "from",
          "type": "address"
        },
        {
          "internalType": "address",
          "name": "to",
          "type": "address"
        },
        {
          "internalType": "uint256",
          "name": "tokenId",
          "type": "uint256"
        }
      ],
      "name": "safeTransferFrom",
      "outputs": [],
      "stateMutability": "nonpayable",
      "type": "function"
    },
    {
      "inputs": [
        {
          "internalType": "address",
          "name": "from",
          "type": "address"
        },
        {
          "internalType": "address",
          "name": "to",
          "type": "address"
        },
        {
          "internalType": "uint256",
          "name": "tokenId",
          "type": "uint256"
        },
        {
          "internalType": "bytes",
          "name": "data",
          "type": "bytes"
        }
      ],
      "name": "safeTransferFrom",
      "outputs": [],
      "stateMutability": "nonpayable",
      "type": "function"
    },
    {
      "inputs": [
        {
          "internalType": "address",
          "name": "operator",
          "type": "address"
        },
        {
          "internalType": "bool",
          "name": "approved",
          "type": "bool"
        }
      ],
      "name": "setApprovalForAll",
      "outputs": [],
      "stateMutability": "nonpayable",
      "type": "function"
    },
    {
      "inputs": [
        {
          "internalType": "bytes4",
          "name": "interfaceId",
          "type": "bytes4"
        }
      ],
      "name": "supportsInterface",
      "outputs": [
        {
          "internalType": "bool",
          "name": "",
          "type": "bool"
        }
      ],
      "stateMutability": "view",
      "type": "function"
    },
    {
      "inputs": [],
      "name": "symbol",
      "outputs": [
        {
          "internalType": "string",
          "name": "",
          "type": "string"
        }
      ],
      "stateMutability": "view",
      "type": "function"
    },
    {
      "inputs": [
        {
          "internalType": "uint256",
          "name": "tokenId",
          "type": "uint256"
        }
      ],
      "name": "tokenURI",
      "outputs": [
        {
          "internalType": "string",
          "name": "",
          "type": "string"
        }
      ],
      "stateMutability": "view",
      "type": "function"
    },
    {
      "inputs": [
        {
          "internalType": "address",
          "name": "from",
          "type": "address"
        },
        {
          "internalType": "address",
          "name": "to",
          "type": "address"
        },
        {
          "internalType": "uint256",
          "name": "tokenId",
          "type": "uint256"
        }
      ],
      "name": "transferFrom",
      "outputs": [],
      "stateMutability": "nonpayable",
      "type": "function"
    },
    {
      "inputs": [
        {
          "internalType": "address",
          "name": "newOwner",
          "type": "address"
        }
      ],
      "name": "transferOwnership",
      "outputs": [],
      "stateMutability": "nonpayable",
      "type": "function"
    }
  ],
  "bytecode": "0x60806040523480156200001157600080fd5b506040518060400160405280600981526020017f4d696e7441644e465400000000000000000000000000000000000000000000008152506040518060400160405280600381526020017f465952000000000000000000000000000000000000000000000000000000000081525081600090816200008f919062000412565b508060019081620000a1919062000412565b505050620000c4620000b8620000ca60201b60201c565b620000d260201b60201c565b620004f9565b600033905090565b6000600760009054906101000a900473ffffffffffffffffffffffffffffffffffffffff16905081600760006101000a81548173ffffffffffffffffffffffffffffffffffffffff021916908373ffffffffffffffffffffffffffffffffffffffff1602179055508173ffffffffffffffffffffffffffffffffffffffff168173ffffffffffffffffffffffffffffffffffffffff167f8be0079c531659141344cd1fd0a4f28419497f9722a3daafe3b4186f6b6457e060405160405180910390a35050565b600081519050919050565b7f4e487b7100000000000000000000000000000000000000000000000000000000600052604160045260246000fd5b7f4e487b7100000000000000000000000000000000000000000000000000000000600052602260045260246000fd5b600060028204905060018216806200021a57607f821691505b60208210810362000230576200022f620001d2565b5b50919050565b60008190508160005260206000209050919050565b60006020601f8301049050919050565b600082821b905092915050565b6000600883026200029a7fffffffffffffffffffffffffffffffffffffffffffffffffffffffffffffffff826200025b565b620002a686836200025b565b95508019841693508086168417925050509392505050565b6000819050919050565b6000819050919050565b6000620002f3620002ed620002e784620002be565b620002c8565b620002be565b9050919050565b6000819050919050565b6200030f83620002d2565b620003276200031e82620002fa565b84845462000268565b825550505050565b600090565b6200033e6200032f565b6200034b81848462000304565b505050565b5b8181101562000373576200036760008262000334565b60018101905062000351565b5050565b601f821115620003c2576200038c8162000236565b62000397846200024b565b81016020851015620003a7578190505b620003bf620003b6856200024b565b83018262000350565b50505b505050565b600082821c905092915050565b6000620003e760001984600802620003c7565b1980831691505092915050565b6000620004028383620003d4565b9150826002028217905092915050565b6200041d8262000198565b67ffffffffffffffff811115620004395762000438620001a3565b5b62000445825462000201565b6200045282828562000377565b600060209050601f8311600181146200048a576000841562000475578287015190505b620004818582620003f4565b865550620004f1565b601f1984166200049a8662000236565b60005b82811015620004c4578489015182556001820191506020850194506020810190506200049d565b86831015620004e45784890151620004e0601f891682620003d4565b8355505b6001600288020188555050505b505050505050565b61350380620005096000396000f3fe60806040526004361061011f5760003560e01c8063715018a6116100a0578063b88d4fde11610064578063b88d4fde146103ec578063c87b56dd14610415578063d204c45e14610452578063e985e9c51461047b578063f2fde38b146104b85761011f565b8063715018a6146103195780638da5cb5b1461033057806395d89b411461035b5780639f1cabc614610386578063a22cb465146103c35761011f565b806323b872dd116100e757806323b872dd1461021d57806342842e0e146102465780636352211e1461026f57806364df05b0146102ac57806370a08231146102dc5761011f565b806301ffc9a71461012457806306661abd1461016157806306fdde031461018c578063081812fc146101b7578063095ea7b3146101f4575b600080fd5b34801561013057600080fd5b5061014b600480360381019061014691906120af565b6104e1565b60405161015891906120f7565b60405180910390f35b34801561016d57600080fd5b506101766105c3565b604051610183919061212b565b60405180910390f35b34801561019857600080fd5b506101a16105d4565b6040516101ae91906121d6565b60405180910390f35b3480156101c357600080fd5b506101de60048036038101906101d99190612224565b610666565b6040516101eb9190612292565b60405180910390f35b34801561020057600080fd5b5061021b600480360381019061021691906122d9565b6106ac565b005b34801561022957600080fd5b50610244600480360381019061023f9190612319565b6107c3565b005b34801561025257600080fd5b5061026d60048036038101906102689190612319565b610823565b005b34801561027b57600080fd5b5061029660048036038101906102919190612224565b610843565b6040516102a39190612292565b60405180910390f35b6102c660048036038101906102c191906124a1565b6108c9565b6040516102d3919061212b565b60405180910390f35b3480156102e857600080fd5b5061030360048036038101906102fe9190612510565b6109f2565b604051610310919061212b565b60405180910390f35b34801561032557600080fd5b5061032e610aa9565b005b34801561033c57600080fd5b50610345610abd565b6040516103529190612292565b60405180910390f35b34801561036757600080fd5b50610370610ae7565b60405161037d91906121d6565b60405180910390f35b34801561039257600080fd5b506103ad60048036038101906103a8919061253d565b610b79565b6040516103ba91906120f7565b60405180910390f35b3480156103cf57600080fd5b506103ea60048036038101906103e591906125b2565b610bb3565b005b3480156103f857600080fd5b50610413600480360381019061040e9190612693565b610bc9565b005b34801561042157600080fd5b5061043c60048036038101906104379190612224565b610c2b565b60405161044991906121d6565b60405180910390f35b34801561045e57600080fd5b5061047960048036038101906104749190612716565b610c3d565b005b34801561048757600080fd5b506104a2600480360381019061049d9190612772565b610cc9565b6040516104af91906120f7565b60405180910390f35b3480156104c457600080fd5b506104df60048036038101906104da9190612510565b610d5d565b005b60007f80ac58cd000000000000000000000000000000000000000000000000000000007bffffffffffffffffffffffffffffffffffffffffffffffffffffffff1916827bffffffffffffffffffffffffffffffffffffffffffffffffffffffff191614806105ac57507f5b5e139f000000000000000000000000000000000000000000000000000000007bffffffffffffffffffffffffffffffffffffffffffffffffffffffff1916827bffffffffffffffffffffffffffffffffffffffffffffffffffffffff1916145b806105bc57506105bb82610de0565b5b9050919050565b60006105cf6008610e4a565b905090565b6060600080546105e3906127e1565b80601f016020809104026020016040519081016040528092919081815260200182805461060f906127e1565b801561065c5780601f106106315761010080835404028352916020019161065c565b820191906000526020600020905b81548152906001019060200180831161063f57829003601f168201915b5050505050905090565b600061067182610e58565b6004600083815260200190815260200160002060009054906101000a900473ffffffffffffffffffffffffffffffffffffffff169050919050565b60006106b782610843565b90508073ffffffffffffffffffffffffffffffffffffffff168373ffffffffffffffffffffffffffffffffffffffff1603610727576040517f08c379a000000000000000000000000000000000000000000000000000000000815260040161071e90612884565b60405180910390fd5b8073ffffffffffffffffffffffffffffffffffffffff16610746610ea3565b73ffffffffffffffffffffffffffffffffffffffff16148061077557506107748161076f610ea3565b610cc9565b5b6107b4576040517f08c379a00000000000000000000000000000000000000000000000000000000081526004016107ab90612916565b60405180910390fd5b6107be8383610eab565b505050565b6107d46107ce610ea3565b82610f64565b610813576040517f08c379a000000000000000000000000000000000000000000000000000000000815260040161080a906129a8565b60405180910390fd5b61081e838383610ff9565b505050565b61083e83838360405180602001604052806000815250610bc9565b505050565b60008061084f836112f2565b9050600073ffffffffffffffffffffffffffffffffffffffff168173ffffffffffffffffffffffffffffffffffffffff16036108c0576040517f08c379a00000000000000000000000000000000000000000000000000000000081526004016108b790612a14565b60405180910390fd5b80915050919050565b600066b1a2bc2ec50000341015610915576040517f08c379a000000000000000000000000000000000000000000000000000000000815260040161090c90612a80565b60405180910390fd5b8273ffffffffffffffffffffffffffffffffffffffff166108fc60143461093c9190612afe565b9081150290604051600060405180830381858888f19350505050158015610967573d6000803e3d6000fd5b5060006109746008610e4a565b9050610980600861132f565b60016009846040516109929190612b6b565b908152602001604051809103902060008282829054906101000a900460ff166109bb9190612b8f565b92506101000a81548160ff021916908360ff1602179055506109dd8582611345565b6109e78184611562565b809150509392505050565b60008073ffffffffffffffffffffffffffffffffffffffff168273ffffffffffffffffffffffffffffffffffffffff1603610a62576040517f08c379a0000000000000000000000000000000000000000000000000000000008152600401610a5990612c36565b60405180910390fd5b600360008373ffffffffffffffffffffffffffffffffffffffff1673ffffffffffffffffffffffffffffffffffffffff168152602001908152602001600020549050919050565b610ab16115cf565b610abb600061164d565b565b6000600760009054906101000a900473ffffffffffffffffffffffffffffffffffffffff16905090565b606060018054610af6906127e1565b80601f0160208091040260200160405190810160405280929190818152602001828054610b22906127e1565b8015610b6f5780601f10610b4457610100808354040283529160200191610b6f565b820191906000526020600020905b815481529060010190602001808311610b5257829003601f168201915b5050505050905090565b600080600983604051610b8c9190612b6b565b908152602001604051809103902060009054906101000a900460ff1660ff16119050919050565b610bc5610bbe610ea3565b8383611713565b5050565b610bda610bd4610ea3565b83610f64565b610c19576040517f08c379a0000000000000000000000000000000000000000000000000000000008152600401610c10906129a8565b60405180910390fd5b610c258484848461187f565b50505050565b6060610c36826118db565b9050919050565b610c456115cf565b6000610c516008610e4a565b9050610c5d600861132f565b610c6783826119ed565b610c718183611562565b6001600983604051610c839190612b6b565b908152602001604051809103902060008282829054906101000a900460ff16610cac9190612b8f565b92506101000a81548160ff021916908360ff160217905550505050565b6000600560008473ffffffffffffffffffffffffffffffffffffffff1673ffffffffffffffffffffffffffffffffffffffff16815260200190815260200160002060008373ffffffffffffffffffffffffffffffffffffffff1673ffffffffffffffffffffffffffffffffffffffff16815260200190815260200160002060009054906101000a900460ff16905092915050565b610d656115cf565b600073ffffffffffffffffffffffffffffffffffffffff168173ffffffffffffffffffffffffffffffffffffffff1603610dd4576040517f08c379a0000000000000000000000000000000000000000000000000000000008152600401610dcb90612cc8565b60405180910390fd5b610ddd8161164d565b50565b60007f01ffc9a7000000000000000000000000000000000000000000000000000000007bffffffffffffffffffffffffffffffffffffffffffffffffffffffff1916827bffffffffffffffffffffffffffffffffffffffffffffffffffffffff1916149050919050565b600081600001549050919050565b610e6181611a0b565b610ea0576040517f08c379a0000000000000000000000000000000000000000000000000000000008152600401610e9790612a14565b60405180910390fd5b50565b600033905090565b816004600083815260200190815260200160002060006101000a81548173ffffffffffffffffffffffffffffffffffffffff021916908373ffffffffffffffffffffffffffffffffffffffff160217905550808273ffffffffffffffffffffffffffffffffffffffff16610f1e83610843565b73ffffffffffffffffffffffffffffffffffffffff167f8c5be1e5ebec7d5bd14f71427d1e84f3dd0314c0f7b2291e5b200ac8c7c3b92560405160405180910390a45050565b600080610f7083610843565b90508073ffffffffffffffffffffffffffffffffffffffff168473ffffffffffffffffffffffffffffffffffffffff161480610fb25750610fb18185610cc9565b5b80610ff057508373ffffffffffffffffffffffffffffffffffffffff16610fd884610666565b73ffffffffffffffffffffffffffffffffffffffff16145b91505092915050565b8273ffffffffffffffffffffffffffffffffffffffff1661101982610843565b73ffffffffffffffffffffffffffffffffffffffff161461106f576040517f08c379a000000000000000000000000000000000000000000000000000000000815260040161106690612d5a565b60405180910390fd5b600073ffffffffffffffffffffffffffffffffffffffff168273ffffffffffffffffffffffffffffffffffffffff16036110de576040517f08c379a00000000000000000000000000000000000000000000000000000000081526004016110d590612dec565b60405180910390fd5b6110eb8383836001611a4c565b8273ffffffffffffffffffffffffffffffffffffffff1661110b82610843565b73ffffffffffffffffffffffffffffffffffffffff1614611161576040517f08c379a000000000000000000000000000000000000000000000000000000000815260040161115890612d5a565b60405180910390fd5b6004600082815260200190815260200160002060006101000a81549073ffffffffffffffffffffffffffffffffffffffff02191690556001600360008573ffffffffffffffffffffffffffffffffffffffff1673ffffffffffffffffffffffffffffffffffffffff168152602001908152602001600020600082825403925050819055506001600360008473ffffffffffffffffffffffffffffffffffffffff1673ffffffffffffffffffffffffffffffffffffffff16815260200190815260200160002060008282540192505081905550816002600083815260200190815260200160002060006101000a81548173ffffffffffffffffffffffffffffffffffffffff021916908373ffffffffffffffffffffffffffffffffffffffff160217905550808273ffffffffffffffffffffffffffffffffffffffff168473ffffffffffffffffffffffffffffffffffffffff167fddf252ad1be2c89b69c2b068fc378daa952ba7f163c4a11628f55a4df523b3ef60405160405180910390a46112ed8383836001611b72565b505050565b60006002600083815260200190815260200160002060009054906101000a900473ffffffffffffffffffffffffffffffffffffffff169050919050565b6001816000016000828254019250508190555050565b600073ffffffffffffffffffffffffffffffffffffffff168273ffffffffffffffffffffffffffffffffffffffff16036113b4576040517f08c379a00000000000000000000000000000000000000000000000000000000081526004016113ab90612e58565b60405180910390fd5b6113bd81611a0b565b156113fd576040517f08c379a00000000000000000000000000000000000000000000000000000000081526004016113f490612ec4565b60405180910390fd5b61140b600083836001611a4c565b61141481611a0b565b15611454576040517f08c379a000000000000000000000000000000000000000000000000000000000815260040161144b90612ec4565b60405180910390fd5b6001600360008473ffffffffffffffffffffffffffffffffffffffff1673ffffffffffffffffffffffffffffffffffffffff16815260200190815260200160002060008282540192505081905550816002600083815260200190815260200160002060006101000a81548173ffffffffffffffffffffffffffffffffffffffff021916908373ffffffffffffffffffffffffffffffffffffffff160217905550808273ffffffffffffffffffffffffffffffffffffffff16600073ffffffffffffffffffffffffffffffffffffffff167fddf252ad1be2c89b69c2b068fc378daa952ba7f163c4a11628f55a4df523b3ef60405160405180910390a461155e600083836001611b72565b5050565b61156b82611a0b565b6115aa576040517f08c379a00000000000000000000000000000000000000000000000000000000081526004016115a190612f56565b60405180910390fd5b806006600084815260200190815260200160002090816115ca9190613122565b505050565b6115d7610ea3565b73ffffffffffffffffffffffffffffffffffffffff166115f5610abd565b73ffffffffffffffffffffffffffffffffffffffff161461164b576040517f08c379a000000000000000000000000000000000000000000000000000000000815260040161164290613240565b60405180910390fd5b565b6000600760009054906101000a900473ffffffffffffffffffffffffffffffffffffffff16905081600760006101000a81548173ffffffffffffffffffffffffffffffffffffffff021916908373ffffffffffffffffffffffffffffffffffffffff1602179055508173ffffffffffffffffffffffffffffffffffffffff168173ffffffffffffffffffffffffffffffffffffffff167f8be0079c531659141344cd1fd0a4f28419497f9722a3daafe3b4186f6b6457e060405160405180910390a35050565b8173ffffffffffffffffffffffffffffffffffffffff168373ffffffffffffffffffffffffffffffffffffffff1603611781576040517f08c379a0000000000000000000000000000000000000000000000000000000008152600401611778906132ac565b60405180910390fd5b80600560008573ffffffffffffffffffffffffffffffffffffffff1673ffffffffffffffffffffffffffffffffffffffff16815260200190815260200160002060008473ffffffffffffffffffffffffffffffffffffffff1673ffffffffffffffffffffffffffffffffffffffff16815260200190815260200160002060006101000a81548160ff0219169083151502179055508173ffffffffffffffffffffffffffffffffffffffff168373ffffffffffffffffffffffffffffffffffffffff167f17307eab39ab6107e8899845ad3d59bd9653f200f220920489ca2b5937696c318360405161187291906120f7565b60405180910390a3505050565b61188a848484610ff9565b61189684848484611b78565b6118d5576040517f08c379a00000000000000000000000000000000000000000000000000000000081526004016118cc9061333e565b60405180910390fd5b50505050565b60606118e682610e58565b6000600660008481526020019081526020016000208054611906906127e1565b80601f0160208091040260200160405190810160405280929190818152602001828054611932906127e1565b801561197f5780601f106119545761010080835404028352916020019161197f565b820191906000526020600020905b81548152906001019060200180831161196257829003601f168201915b505050505090506000611990611cff565b905060008151036119a55781925050506119e8565b6000825111156119da5780826040516020016119c292919061335e565b604051602081830303815290604052925050506119e8565b6119e384611d3c565b925050505b919050565b611a07828260405180602001604052806000815250611da4565b5050565b60008073ffffffffffffffffffffffffffffffffffffffff16611a2d836112f2565b73ffffffffffffffffffffffffffffffffffffffff1614159050919050565b6001811115611b6c57600073ffffffffffffffffffffffffffffffffffffffff168473ffffffffffffffffffffffffffffffffffffffff1614611ae05780600360008673ffffffffffffffffffffffffffffffffffffffff1673ffffffffffffffffffffffffffffffffffffffff1681526020019081526020016000206000828254611ad89190613382565b925050819055505b600073ffffffffffffffffffffffffffffffffffffffff168373ffffffffffffffffffffffffffffffffffffffff1614611b6b5780600360008573ffffffffffffffffffffffffffffffffffffffff1673ffffffffffffffffffffffffffffffffffffffff1681526020019081526020016000206000828254611b6391906133b6565b925050819055505b5b50505050565b50505050565b6000611b998473ffffffffffffffffffffffffffffffffffffffff16611dff565b15611cf2578373ffffffffffffffffffffffffffffffffffffffff1663150b7a02611bc2610ea3565b8786866040518563ffffffff1660e01b8152600401611be4949392919061343f565b6020604051808303816000875af1925050508015611c2057506040513d601f19601f82011682018060405250810190611c1d91906134a0565b60015b611ca2573d8060008114611c50576040519150601f19603f3d011682016040523d82523d6000602084013e611c55565b606091505b506000815103611c9a576040517f08c379a0000000000000000000000000000000000000000000000000000000008152600401611c919061333e565b60405180910390fd5b805181602001fd5b63150b7a0260e01b7bffffffffffffffffffffffffffffffffffffffffffffffffffffffff1916817bffffffffffffffffffffffffffffffffffffffffffffffffffffffff191614915050611cf7565b600190505b949350505050565b60606040518060400160405280600781526020017f697066733a2f2f00000000000000000000000000000000000000000000000000815250905090565b6060611d4782610e58565b6000611d51611cff565b90506000815111611d715760405180602001604052806000815250611d9c565b80611d7b84611e22565b604051602001611d8c92919061335e565b6040516020818303038152906040525b915050919050565b611dae8383611345565b611dbb6000848484611b78565b611dfa576040517f08c379a0000000000000000000000000000000000000000000000000000000008152600401611df19061333e565b60405180910390fd5b505050565b6000808273ffffffffffffffffffffffffffffffffffffffff163b119050919050565b606060006001611e3184611ef0565b01905060008167ffffffffffffffff811115611e5057611e4f612376565b5b6040519080825280601f01601f191660200182016040528015611e825781602001600182028036833780820191505090505b509050600082602001820190505b600115611ee5578080600190039150507f3031323334353637383961626364656600000000000000000000000000000000600a86061a8153600a8581611ed957611ed8612aa0565b5b04945060008503611e90575b819350505050919050565b600080600090507a184f03e93ff9f4daa797ed6e38ed64bf6a1f0100000000000000008310611f4e577a184f03e93ff9f4daa797ed6e38ed64bf6a1f0100000000000000008381611f4457611f43612aa0565b5b0492506040810190505b6d04ee2d6d415b85acef81000000008310611f8b576d04ee2d6d415b85acef81000000008381611f8157611f80612aa0565b5b0492506020810190505b662386f26fc100008310611fba57662386f26fc100008381611fb057611faf612aa0565b5b0492506010810190505b6305f5e1008310611fe3576305f5e1008381611fd957611fd8612aa0565b5b0492506008810190505b6127108310612008576127108381611ffe57611ffd612aa0565b5b0492506004810190505b6064831061202b576064838161202157612020612aa0565b5b0492506002810190505b600a831061203a576001810190505b80915050919050565b6000604051905090565b600080fd5b600080fd5b60007fffffffff0000000000000000000000000000000000000000000000000000000082169050919050565b61208c81612057565b811461209757600080fd5b50565b6000813590506120a981612083565b92915050565b6000602082840312156120c5576120c461204d565b5b60006120d38482850161209a565b91505092915050565b60008115159050919050565b6120f1816120dc565b82525050565b600060208201905061210c60008301846120e8565b92915050565b6000819050919050565b61212581612112565b82525050565b6000602082019050612140600083018461211c565b92915050565b600081519050919050565b600082825260208201905092915050565b60005b83811015612180578082015181840152602081019050612165565b60008484015250505050565b6000601f19601f8301169050919050565b60006121a882612146565b6121b28185612151565b93506121c2818560208601612162565b6121cb8161218c565b840191505092915050565b600060208201905081810360008301526121f0818461219d565b905092915050565b61220181612112565b811461220c57600080fd5b50565b60008135905061221e816121f8565b92915050565b60006020828403121561223a5761223961204d565b5b60006122488482850161220f565b91505092915050565b600073ffffffffffffffffffffffffffffffffffffffff82169050919050565b600061227c82612251565b9050919050565b61228c81612271565b82525050565b60006020820190506122a76000830184612283565b92915050565b6122b681612271565b81146122c157600080fd5b50565b6000813590506122d3816122ad565b92915050565b600080604083850312156122f0576122ef61204d565b5b60006122fe858286016122c4565b925050602061230f8582860161220f565b9150509250929050565b6000806000606084860312156123325761233161204d565b5b6000612340868287016122c4565b9350506020612351868287016122c4565b92505060406123628682870161220f565b9150509250925092565b600080fd5b600080fd5b7f4e487b7100000000000000000000000000000000000000000000000000000000600052604160045260246000fd5b6123ae8261218c565b810181811067ffffffffffffffff821117156123cd576123cc612376565b5b80604052505050565b60006123e0612043565b90506123ec82826123a5565b919050565b600067ffffffffffffffff82111561240c5761240b612376565b5b6124158261218c565b9050602081019050919050565b82818337600083830152505050565b600061244461243f846123f1565b6123d6565b9050828152602081018484840111156124605761245f612371565b5b61246b848285612422565b509392505050565b600082601f8301126124885761248761236c565b5b8135612498848260208601612431565b91505092915050565b6000806000606084860312156124ba576124b961204d565b5b60006124c8868287016122c4565b93505060206124d9868287016122c4565b925050604084013567ffffffffffffffff8111156124fa576124f9612052565b5b61250686828701612473565b9150509250925092565b6000602082840312156125265761252561204d565b5b6000612534848285016122c4565b91505092915050565b6000602082840312156125535761255261204d565b5b600082013567ffffffffffffffff81111561257157612570612052565b5b61257d84828501612473565b91505092915050565b61258f816120dc565b811461259a57600080fd5b50565b6000813590506125ac81612586565b92915050565b600080604083850312156125c9576125c861204d565b5b60006125d7858286016122c4565b92505060206125e88582860161259d565b9150509250929050565b600067ffffffffffffffff82111561260d5761260c612376565b5b6126168261218c565b9050602081019050919050565b6000612636612631846125f2565b6123d6565b90508281526020810184848401111561265257612651612371565b5b61265d848285612422565b509392505050565b600082601f83011261267a5761267961236c565b5b813561268a848260208601612623565b91505092915050565b600080600080608085870312156126ad576126ac61204d565b5b60006126bb878288016122c4565b94505060206126cc878288016122c4565b93505060406126dd8782880161220f565b925050606085013567ffffffffffffffff8111156126fe576126fd612052565b5b61270a87828801612665565b91505092959194509250565b6000806040838503121561272d5761272c61204d565b5b600061273b858286016122c4565b925050602083013567ffffffffffffffff81111561275c5761275b612052565b5b61276885828601612473565b9150509250929050565b600080604083850312156127895761278861204d565b5b6000612797858286016122c4565b92505060206127a8858286016122c4565b9150509250929050565b7f4e487b7100000000000000000000000000000000000000000000000000000000600052602260045260246000fd5b600060028204905060018216806127f957607f821691505b60208210810361280c5761280b6127b2565b5b50919050565b7f4552433732313a20617070726f76616c20746f2063757272656e74206f776e6560008201527f7200000000000000000000000000000000000000000000000000000000000000602082015250565b600061286e602183612151565b915061287982612812565b604082019050919050565b6000602082019050818103600083015261289d81612861565b9050919050565b7f4552433732313a20617070726f76652063616c6c6572206973206e6f7420746f60008201527f6b656e206f776e6572206f7220617070726f76656420666f7220616c6c000000602082015250565b6000612900603d83612151565b915061290b826128a4565b604082019050919050565b6000602082019050818103600083015261292f816128f3565b9050919050565b7f4552433732313a2063616c6c6572206973206e6f7420746f6b656e206f776e6560008201527f72206f7220617070726f76656400000000000000000000000000000000000000602082015250565b6000612992602d83612151565b915061299d82612936565b604082019050919050565b600060208201905081810360008301526129c181612985565b9050919050565b7f4552433732313a20696e76616c696420746f6b656e2049440000000000000000600082015250565b60006129fe601883612151565b9150612a09826129c8565b602082019050919050565b60006020820190508181036000830152612a2d816129f1565b9050919050565b7f496e73756666696369656e7420616d6f756e742073656e740000000000000000600082015250565b6000612a6a601883612151565b9150612a7582612a34565b602082019050919050565b60006020820190508181036000830152612a9981612a5d565b9050919050565b7f4e487b7100000000000000000000000000000000000000000000000000000000600052601260045260246000fd5b7f4e487b7100000000000000000000000000000000000000000000000000000000600052601160045260246000fd5b6000612b0982612112565b9150612b1483612112565b925082612b2457612b23612aa0565b5b828204905092915050565b600081905092915050565b6000612b4582612146565b612b4f8185612b2f565b9350612b5f818560208601612162565b80840191505092915050565b6000612b778284612b3a565b915081905092915050565b600060ff82169050919050565b6000612b9a82612b82565b9150612ba583612b82565b9250828201905060ff811115612bbe57612bbd612acf565b5b92915050565b7f4552433732313a2061646472657373207a65726f206973206e6f74206120766160008201527f6c6964206f776e65720000000000000000000000000000000000000000000000602082015250565b6000612c20602983612151565b9150612c2b82612bc4565b604082019050919050565b60006020820190508181036000830152612c4f81612c13565b9050919050565b7f4f776e61626c653a206e6577206f776e657220697320746865207a65726f206160008201527f6464726573730000000000000000000000000000000000000000000000000000602082015250565b6000612cb2602683612151565b9150612cbd82612c56565b604082019050919050565b60006020820190508181036000830152612ce181612ca5565b9050919050565b7f4552433732313a207472616e736665722066726f6d20696e636f72726563742060008201527f6f776e6572000000000000000000000000000000000000000000000000000000602082015250565b6000612d44602583612151565b9150612d4f82612ce8565b604082019050919050565b60006020820190508181036000830152612d7381612d37565b9050919050565b7f4552433732313a207472616e7366657220746f20746865207a65726f2061646460008201527f7265737300000000000000000000000000000000000000000000000000000000602082015250565b6000612dd6602483612151565b9150612de182612d7a565b604082019050919050565b60006020820190508181036000830152612e0581612dc9565b9050919050565b7f4552433732313a206d696e7420746f20746865207a65726f2061646472657373600082015250565b6000612e42602083612151565b9150612e4d82612e0c565b602082019050919050565b60006020820190508181036000830152612e7181612e35565b9050919050565b7f4552433732313a20746f6b656e20616c7265616479206d696e74656400000000600082015250565b6000612eae601c83612151565b9150612eb982612e78565b602082019050919050565b60006020820190508181036000830152612edd81612ea1565b9050919050565b7f45524337323155524953746f726167653a2055524920736574206f66206e6f6e60008201527f6578697374656e7420746f6b656e000000000000000000000000000000000000602082015250565b6000612f40602e83612151565b9150612f4b82612ee4565b604082019050919050565b60006020820190508181036000830152612f6f81612f33565b9050919050565b60008190508160005260206000209050919050565b60006020601f8301049050919050565b600082821b905092915050565b600060088302612fd87fffffffffffffffffffffffffffffffffffffffffffffffffffffffffffffffff82612f9b565b612fe28683612f9b565b95508019841693508086168417925050509392505050565b6000819050919050565b600061301f61301a61301584612112565b612ffa565b612112565b9050919050565b6000819050919050565b61303983613004565b61304d61304582613026565b848454612fa8565b825550505050565b600090565b613062613055565b61306d818484613030565b505050565b5b818110156130915761308660008261305a565b600181019050613073565b5050565b601f8211156130d6576130a781612f76565b6130b084612f8b565b810160208510156130bf578190505b6130d36130cb85612f8b565b830182613072565b50505b505050565b600082821c905092915050565b60006130f9600019846008026130db565b1980831691505092915050565b600061311283836130e8565b9150826002028217905092915050565b61312b82612146565b67ffffffffffffffff81111561314457613143612376565b5b61314e82546127e1565b613159828285613095565b600060209050601f83116001811461318c576000841561317a578287015190505b6131848582613106565b8655506131ec565b601f19841661319a86612f76565b60005b828110156131c25784890151825560018201915060208501945060208101905061319d565b868310156131df57848901516131db601f8916826130e8565b8355505b6001600288020188555050505b505050505050565b7f4f776e61626c653a2063616c6c6572206973206e6f7420746865206f776e6572600082015250565b600061322a602083612151565b9150613235826131f4565b602082019050919050565b600060208201905081810360008301526132598161321d565b9050919050565b7f4552433732313a20617070726f766520746f2063616c6c657200000000000000600082015250565b6000613296601983612151565b91506132a182613260565b602082019050919050565b600060208201905081810360008301526132c581613289565b9050919050565b7f4552433732313a207472616e7366657220746f206e6f6e20455243373231526560008201527f63656976657220696d706c656d656e7465720000000000000000000000000000602082015250565b6000613328603283612151565b9150613333826132cc565b604082019050919050565b600060208201905081810360008301526133578161331b565b9050919050565b600061336a8285612b3a565b91506133768284612b3a565b91508190509392505050565b600061338d82612112565b915061339883612112565b92508282039050818111156133b0576133af612acf565b5b92915050565b60006133c182612112565b91506133cc83612112565b92508282019050808211156133e4576133e3612acf565b5b92915050565b600081519050919050565b600082825260208201905092915050565b6000613411826133ea565b61341b81856133f5565b935061342b818560208601612162565b6134348161218c565b840191505092915050565b60006080820190506134546000830187612283565b6134616020830186612283565b61346e604083018561211c565b81810360608301526134808184613406565b905095945050505050565b60008151905061349a81612083565b92915050565b6000602082840312156134b6576134b561204d565b5b60006134c48482850161348b565b9150509291505056fea26469706673582212204570377a1d2b7b92e704130f397977988ec2150f408fc1b5faab0da996e0ab1264736f6c63430008110033",
  "linkReferences": {},
  "deployedLinkReferences": {}
}